:100000000C942A000C9434000C9434000C943400AA
:100010000C9434000C9434000C9434000C94340090
:100020000C9434000C9434000C9434000C94340080
:100030000C9434000C9434000C9434000C94340070
:100040000C9434000C9434000C9434000C94340060
:100050000C94340011241FBECFE5D8E0DEBFCDBF25
:100060000E9478050C9488050C940000813031F1D1
:10007000813038F0823009F43EC0833009F072C01C
:1000800056C0442321F0413009F06CC00CC02AB3A3
:1000900081E090E002C0880F991F6A95E2F7809591
:1000A00082238ABB08952AB381E090E002C0880FC2
:1000B000991F6A95E2F7282B2ABB0895442321F063
:1000C000413009F04FC00CC027B381E090E002C07E
:1000D000880F991F6A95E2F78095822387BB089560
:1000E00027B381E090E002C0880F991F6A95E2F77C
:1000F000282B27BB0895442319F0413099F50CC0F3
:1001000024B381E090E002C0880F991F6A95E2F75E
:100110008095822384BB089524B381E090E002C0DF
:10012000880F991F6A95E2F7282B24BB0895442372
:1001300019F04130B9F40CC021B381E090E002C065
:10014000880F991F6A95E2F78095822381BB0895F5
:1001500021B381E090E002C0880F991F6A95E2F711
:10016000282B21BB0895813031F1813038F0823065
:1001700009F43EC0833009F072C056C0442321F018
:10018000413009F06CC00CC02BB381E090E002C09C
:10019000880F991F6A95E2F7809582238BBB08959B
:1001A0002BB381E090E002C0880F991F6A95E2F7B7
:1001B000282B2BBB0895442321F0413009F04FC078
:1001C0000CC028B381E090E002C0880F991F6A95A7
:1001D000E2F78095822388BB089528B381E090E000
:1001E00002C0880F991F6A95E2F7282B28BB089553
:1001F000442319F0413099F50CC025B381E090E01B
:1002000002C0880F991F6A95E2F78095822385BB0B
:10021000089525B381E090E002C0880F991F6A9588
:10022000E2F7282B25BB0895442319F04130B9F497
:100230000CC022B381E090E002C0880F991F6A953C
:10024000E2F78095822382BB089522B381E090E09B
:1002500002C0880F991F6A95E2F7282B22BB0895E8
:10026000FA01813049F0813028F0823039F0833052
:10027000C1F40EC089B303C086B301C083B390E05C
:1002800002C0959587956A95E2F7817080830895FD
:1002900080B390E002C0959587956A95E2F78170EA
:1002A00080830895813091F0813028F08230C9F048
:1002B000833061F521C02BB381E090E002C0880F4C
:1002C000991F6A95E2F728272BBB089528B381E090
:1002D00090E002C0880F991F6A95E2F7282728BB93
:1002E000089525B381E090E002C0880F991F6A95B8
:1002F000E2F7282725BB089522B381E090E002C0F1
:10030000880F991F6A95E2F7282722BB089581304C
:1003100041F0813018F0823069F408C082E060E07A
:1003200002C082E062E00E945201089582E061E032
:100330000E9452010895813041F0813018F08230DE
:1003400079F409C082E060E002C082E062E040E04F
:100350000E94B300089582E061E040E00E94B30093
:100360000895813041F0813018F0823079F409C06D
:1003700082E060E002C082E062E041E00E94B300FF
:10038000089582E061E041E00E94B300089580E0BA
:100390000E94B10182E00E94B10181E00E94B1019E
:1003A00088E893E120E931E0F9013197F1F701970D
:1003B000D9F780E00E949B0182E00E949B0181E0CE
:1003C0000E949B0188E893E120E931E0F90131972F
:1003D000F1F70197D9F7089580E00E94B10188E80C
:1003E00093E120E931E0F9013197F1F70197D9F76D
:1003F00080E00E949B0188E893E120E931E0F90167
:100400003197F1F70197D9F782E00E94B10188E8AE
:1004100093E120E931E0F9013197F1F70197D9F73C
:1004200082E00E949B0188E893E120E931E0F90134
:100430003197F1F70197D9F781E00E94B10188E87F
:1004400093E120E931E0F9013197F1F70197D9F70C
:1004500081E00E949B0188E893E120E931E0F90105
:100460003197F1F70197D9F7089580E00E94B10123
:1004700082E00E94B10188E893E120E931E0F901CE
:100480003197F1F70197D9F780E00E949B0182E054
:100490000E949B0188E893E120E931E0F90131975E
:1004A000F1F70197D9F782E00E94B10181E00E9443
:1004B000B10188E893E120E931E0F9013197F1F7E2
:1004C0000197D9F782E00E949B0181E00E949B0185
:1004D00088E893E120E931E0F9013197F1F70197DC
:1004E000D9F780E00E94B10181E00E94B10188E863
:1004F00093E120E931E0F9013197F1F70197D9F75C
:1005000080E00E949B0181E00E949B0188E893E1CA
:1005100020E931E0F9013197F1F70197D9F7089512
:10052000813041F0813018F0823079F409C082E0E6
:1005300060E002C082E062E041E00E94360008957F
:1005400082E061E041E00E9436000895EF92FF9260
:100550000F931F93CF93DF93282F843608F03CC26C
:100560006AE00E947C05092F822F0E947C05182FCB
:10057000C0E0D0E080EAE82E8FE0F82E043009F4E5
:1005800099C0053058F40130F1F10130D0F002305B
:1005900009F45BC0033009F0F6C06FC0073009F4FE
:1005A000AEC0083038F4053009F497C0063009F0C1
:1005B000EAC09CC0083009F4A6C0093009F0E3C0C5
:1005C000BAC080E061E041E00E94B30080E062E0F8
:1005D00041E00E94B30080E063E041E00E94B3008C
:1005E00080E064E041E00E94B30080E065E041E02B
:1005F0000E94B30080E066E041E00E94B30080E02A
:1006000061E041E01CC080E061E040E00E94B30096
:1006100080E062E041E00E94B30080E063E041E0FE
:100620000E94B30080E064E040E00E94B30080E0FC
:1006300065E040E00E94B30080E066E040E00E9498
:10064000B30080E067E040E097C080E061E041E017
:100650000E94B30080E062E041E00E94B30080E0CD
:1006600063E040E00E94B30080E064E041E00E946B
:10067000B30080E065E041E017C080E061E041E068
:100680000E94B30080E062E041E00E94B30080E09D
:1006900063E041E00E94B30080E064E041E00E943A
:1006A000B30080E065E040E00E94B30080E066E0D7
:1006B00040E05DC080E061E040E00E94B30080E087
:1006C00062E041E00E94B30080E063E041E00E940C
:1006D000B30080E064E040E040C080E061E041E0E1
:1006E0000E94B30080E062E040E02DC080E061E065
:1006F00041E00E94B30080E062E040E00CC080E096
:1007000061E041E083CF80E061E041E00E94B3001E
:1007100080E062E041E00E94B30080E063E041E0FD
:100720000E94B30080E064E041E00E94B30080E0FA
:1007300065E041E017C080E061E041E00E94B30065
:1007400080E062E041E00E94B30080E063E041E0CD
:100750000E94B30080E064E041E00E94B30080E0CA
:1007600065E040E00E94B30080E066E041E00E9466
:10077000B30080E067E041E00E94B30081E060E008
:1007800040E00E94B30082E066E041E00E94B300D6
:1007900082E067E040E00E94B300C7010197F1F7F3
:1007A00082E066E040E00E94B300143009F499C092
:1007B000153058F41130F1F11130D0F0123009F445
:1007C0005BC0133009F0F6C06FC0173009F4AEC03B
:1007D000183038F4153009F497C0163009F0EAC023
:1007E0009CC0183009F4A6C0193009F0E3C0BAC0A3
:1007F00080E061E041E00E94B30080E062E041E01F
:100800000E94B30080E063E041E00E94B30080E01A
:1008100064E041E00E94B30080E065E041E00E94B6
:10082000B30080E066E041E00E94B30080E061E058
:1008300041E01CC080E061E040E00E94B30080E045
:1008400062E041E00E94B30080E063E041E00E948A
:10085000B30080E064E040E00E94B30080E065E027
:1008600040E00E94B30080E066E040E00E94B300F8
:1008700080E067E040E097C080E061E041E00E94F6
:10088000B30080E062E041E00E94B30080E063E0FA
:1008900040E00E94B30080E064E041E00E94B300C9
:1008A00080E065E041E017C080E061E041E00E9447
:1008B000B30080E062E041E00E94B30080E063E0CA
:1008C00041E00E94B30080E064E041E00E94B30098
:1008D00080E065E040E00E94B30080E066E040E038
:1008E0005DC080E061E040E00E94B30080E062E033
:1008F00041E00E94B30080E063E041E00E94B30069
:1009000080E064E040E040C080E061E041E00E94BF
:10091000B30080E062E040E02DC080E061E041E0B3
:100920000E94B30080E062E040E00CC080E061E043
:1009300041E083CF80E061E041E00E94B30080E0CD
:1009400062E041E00E94B30080E063E041E00E9489
:10095000B30080E064E041E00E94B30080E065E025
:1009600041E017C080E061E041E00E94B30080E018
:1009700062E041E00E94B30080E063E041E00E9459
:10098000B30080E064E041E00E94B30080E065E0F5
:1009900040E00E94B30080E066E041E00E94B300C6
:1009A00080E067E041E00E94B30081E060E040E069
:1009B0000E94B30082E067E041E00E94B300C701FB
:1009C0000197F1F782E067E040E00E94B3002196D2
:1009D000CA3FD10509F0D2CDDF91CF911F910F9180
:1009E000FF90EF90089580E061E041E00E943600C2
:1009F00080E062E041E00E94360080E063E041E098
:100A00000E94360080E064E041E00E94360080E011
:100A100065E041E00E94360080E066E041E00E942F
:100A2000360080E067E041E00E94360081E060E04F
:100A300041E00E94360082E066E041E00E9436001C
:100A400082E067E041E00E94360008950F931F9313
:100A5000DF93CF9300D0CDB7DEB78C017A83698363
:100A6000DC0113968C9113978823A1F5FB0181E09B
:100A7000808311968C91119712966C91AF010E9410
:100A80003001A981BA818C91882321F580ED97E00E
:100A900020E931E0F9013197F1F70197D9F7F80131
:100AA00081816281AD010E943001E981FA818081FA
:100AB000882351F00FC0D80111968C91119712968E
:100AC0006C91AF010E943001E981FA818081882315
:100AD00091F310820F900F90CF91DF911F910F91A2
:100AE0000895FC018181628140E00E9436000895F2
:100AF00082E00E949002FFCF991B79E004C0991F09
:100B0000961708F0961B881F7A95C9F78095089567
:040B1000F894FFCF87
:00000001FF
